:100000000C9445060C9400000C9400000C94000025
:100010000C9400000C9400000C9400000C94000060
:100020000C9400000C9400000C9400000C94000050
:100030000C9400000C9400000C9400000C94000040
:100040000C9400000C9400000C9400000C94000030
:100050000C9400000C9400000C9400000C94000020
:100060000C9400000C9400000C9400000C94000010
:100070000C9400000C9400000C9400000C94000000
:100080000C9400000C9400000C9400000C940000F0
:100090000000000000000000000000000000000060
:1000A0000000000000000000000000000C940000B0
:1000B0000C9400000C9400000C9400000C940000C0
:1000C0000C9400000C9400000C9400000C940000B0
:1000D0000C94000000000000000000000000000080
:1000E00000000000000000000C9400000C940000D0
:1000F0000C94000000000000000000000000000060
:100100000C9400000C9400000C9400000C9400006F
:100110000C9400000C9400000C9400000C9400005F
:100120000C9400000C9400000C94000000000000EF
:10013000000000000C9400000C9400000C940000DF
:100140000C9400000C9400000C9400000C9400002F
:100150000C9400000C9400000C9400000C9400001F
:100160000C9400000C9400000C9400000C9400000F
:100170000C9400000C94000000000000000000003F
:10018000000000000000000000000000000000006F
:10019000000000000000000000000000000000005F
:1001A000000000000000000000000000000000004F
:1001B000000000000000000000000000000000003F
:1001C000000000000000000000000000000000002F
:1001D000000000000000000000000000000000001F
:1001E000000000000000000000000000000000000F
:0C01F000000000000C9400000C940000C3
:100C8A00BFEFBDBFBFE2BEBF0E94B606CDB7DEB79B
:100C9A002A97CDBFDEBF21962F923F924F925F9245
:100CAA006F9256DFB6E5B883BAE3B983B0E0BA8388
:100CBA008E012801B1E03B2EB1E02B2E02DFB1E418
:100CCA00BB83B4E4BC83B3E4BD83BAE3BE83B0E0C0
:100CDA00BF838E010D5F1F4F2801B1E03B2EB2E0AA
:100CEA002B2EEFDEB8E33B2EB9E12B2EBEDE0887B2
:100CFA00198720E017FD2FEF322F37DF40E058EE3B
:100D0A0060E075E4A8DE40E050EE6FEF74E499DE2F
:100D1A0074DE66242801B1E03B2EB6E02B2E2DDFCF
:100D2A00B1E06B2E48845984B2E03B2EB6E02B2EFC
:100D3A0024DF29E11AE502EB0A95F1F71A95E1F7A2
:100D4A002A95D1F700000000CDCF6F905F904F90A9
:060D5A003F902F90FFCF37
:100B5A002F9281DDB7DD9CDC39DEB1E02B2ED4DDAE
:0A0B6A00BCE02B2ED1DD2F90089582
:10066000B0915000B460B09350000091510002FD71
:1006700001C0FBCF00915000026000935000B8ED24
:10068000B4BF0091410000780360009341000091E5
:100690005600087F009356000091600001600093AF
:1006A00060000091510001FD01C0FBCFB8EDB4BF67
:1006B00000914000087F01600093400000915000CD
:0E06C000067E00935000B0E0B093B4000895A1
:1006CE00B0E0B0930406B0E0B0930006BFEFB09375
:1006DE00B000B0E0B0931006B0E0B0930906B0E001
:0C06EE00B0930A06B0E0B0930B0608952C
:10049A0040E101B5302F222700B510E0022B132BC3
:1004AA001F7000930C0210930D02B0E1B093010289
:1004BA00B4E0B0930402B0E1B0930202B2E0B093A8
:1004CA002002B0E0B0932102009100020160009383
:1004DA0000021AE20EE80A95F1F71A95E1F7000010
:1004EA0000E00417F8F4B0912002B068B09320023B
:1004FA000091230200FD01C0FBCFB1E0B0932302BB
:10050A0020910020309101200091100210911102D7
:10051A00020F131F0093002010930120042F015093
:10052A00402FDECF009100020E7F0093000200915F
:10053A00002010910120B4E015950795BA95E1F7CE
:10054A000093002010930120B0E0B0931802B093FA
:10055A001902B1E0B0932002B8E3B0932102B0E0EF
:10056A00B0930302B0E0B0932202B0E0B0932A0243
:10057A00B0E0B0933202B0E0B0933A0200910102C7
:10058A0008600093010200910002016000930002DA
:0E059A001EE501E80A95F1F71A95E1F70895BC
:1007D600B0914406B77FB0934406B0914406BB7F00
:1007E600B0934406B0914406BF77B0934406B091E7
:1007F6004406BF7BB0934406B0914406BF7DB093D8
:100806004406B0914406BF7EB0934406B0914006BC
:10081600B860B0934006B0914006B460B09340060D
:10082600B0914006B061B0934006B0914006B06208
:10083600B0934006B0914006B064B0934006B091C4
:100846004006B068B0934006E8DCE7DCE6DCB09131
:100856004406B062B0934406B0914406B061B093CA
:100866004406B0914406B860B0934406DFDCB0910C
:100876004406B77FB0934406D0DCB0914406B86016
:10088600B0934406D3DCB0914406B77FB0934406D8
:10089600C4DCB0914406B860B0934406C7DCB0919E
:1008A6004406B77FB0934406B8DCB0914406BF7ED9
:1008B600B0934406B0914406B860B0934406B6DCE3
:1008C600B0914406B77FB0934406A7DCB0914406C6
:1008D600B860B0934406AADCB0914406B77FB093E3
:1008E6004406B0914406BF7DB0934406B0914406D9
:1008F600B068B0934406B0914406B860B09344061D
:1009060095DCB0914406B77FB093440686DCB0917F
:100916004406BF77B0934406B0914406B061B093E5
:100926004406B0914406B860B09344067FDCB091AB
:100936004406B77FB0934406B0914406BF7EB09399
:100946004406B0914406B860B09344066FDCB0919B
:100956004406B77FB093440660DCB0914406B860A5
:10096600B093440663DCB0914406B77FB093440667
:10097600B0914406B061B0934406B0914406B860A5
:10098600B093440653DCB0914406B77FB093440657
:1009960044DCB0914406BF7EB0934406B091440651
:1009A600B860B093440642DCB0914406B77FB0937A
:1009B6004406B0914406B068B0934406B09144062C
:1009C600B064B0934406B0914406B062B093440656
:1009D600B0914406B061B0934406B0914406B86045
:1009E600B093440623DCB0914406B77FB093440627
:0E09F60014DCB0910220B160B093022008958D
:100220001AE303E20A95F1F71A95E1F700000000DE
:0202300008952F
:0C02320002E00A95F1F7000000000895BA
:1007120027FAB0914406B7F9B093440626FAB0918D
:100722004406B6F9B093440625FAB0914406B5F9E9
:10073200B093440624FAB0914406B4F9B093440647
:10074200B091022000904406E894B0FF689402F849
:1007520000924406B0914406B860B093440668DD46
:10076200B0914406B77FB093440623FAB091440691
:10077200B7F9B093440622FAB0914406B6F9B093A1
:10078200440621FAB0914406B5F9B093440620FA22
:10079200B0914406B4F9B0934406B091022000909F
:1007A2004406E894B0FF689402F800924406B091BF
:1007B2004406B860B09344063BDDB0914406B77F6F
:1007C200B0934406B0910220B0FF02C028DD01C000
:0407D2004ADD08955F
:0A02680005E80A95F1F7000008957B
:100ACC002F920FC0B0E82B2E19C0B0EC2B2E16C0F5
:100ADC00B4E92B2E13C0B4ED2B2E10C0B0E82B2E86
:100AEC000DC0B1E02B1671F3B2E02B1671F3B3E02D
:100AFC002B1671F3B4E02B1671F3F0CF032D0150CC
:100B0C00020D202E202EFFDDB0910220BE7FB0936F
:100B1C00022010E0E12FF0E0E40DF51D0081002330
:100B2C0079F0E12FF0E0E40DF51D00811F932F9279
:100B3C00202EDDDD2F901F91012F0F5F102FEACF9C
:0E0B4C00B0910220B160B09302202F90089566
:1006FA00B0910220BE7FB093022006D0B0910220B2
:08070A00B160B09302200895D4
:100A740050E060E070E080E0422D00E00417A0F454
:100A84002F92232CE6DC2F9020E017FD2FEF322F3E
:100A9400050F161F271F381F502F612F722F832F0A
:100AA400042F0150402FE9CF3F922F92052F162F8C
:100AB400272F382F422D50E0652F752F0FDC890129
:080AC4009A012F903F90089564
:10045600209221020091230200FD01C0FBCFB1E0F2
:10046600B0932302209124023091250200910020AE
:1004760010910120021713074CF4009000201090F1
:100486000120890100191109980102C020E030E01D
:04049600890108953B
:1002E000C9019A01AB01B80197FB092E05260ED072
:1002F00057FD04D014D00AD0001C38F45095409516
:10030000309521953F4F4F4F5F4F0895F6F79095E9
:100310008095709561957F4F8F4F9F4F0895A1E213
:100320001A2EAA1BBB1BFD010DC0AA1FBB1FEE1F6F
:10033000FF1FA217B307E407F50720F0A21BB30BBA
:10034000E40BF50B661F771F881F991F1A9469F736
:1003500060957095809590959B01AC01BD01CF0192
:020360000895FE
:100B8400CF93DF93CDB7DEB72497CDBFDEBF2196D9
:100B94002F923F9200E010E0041515058CF4B0E2AA
:100BA400B883B0E0B9838E016F925F924F923F9207
:100BB4002801322C2F9088DF4F905F906F9017C0E0
:100BC400BDE2BA83B0E0BB838E010E5F1F4F6F920C
:100BD4005F924F923F922801322C2F9075DF4F90F5
:100BE4005F906F9082014FEF5FEF21DC28016F92DD
:100BF4005F924F9248EE53E08201B1DB8B01005DBE
:100C0400202E79DD4F905F906F9009C00CC05F92E9
:100C14004F92BEE22B2E6FDD4F905F9004C0B1E087
:100C24006B16A1F3F4CF5F924F9244E650E0820139
:100C340096DB8B014AE050E092DB8C01005D202EB4
:100C44005ADD4F905F905F924F924AE050E08201EC
:100C540086DB8B014AE050E082DB8C01005D202EB4
:100C64004ADD4F905F904AE050E0820178DB8C01CE
:100C7400005D202E40DD3F902F902396CDBFDEBF38
:060C8400DF91CF910895FD
:100432009801249F8001259F100D349F100D08956F
:00044200BA
:10036200C801BA0197FB092E07260AD077FD04D0EF
:100372000CD006D000201AF4709561957F4F089535
:10038200F6F7909581959F4F0895AA1BBB1B51E1EB
:1003920007C0AA1FBB1FA617B70710F0A61BB70BF3
:1003A200881F991F5A95A9F780959095BC01CD0198
:0403B200089508950D
:0A0B7A0005900D920197E1F7089530
:060B7400E89465DC089521
:1004420047E16627552726F0332312F411DF60E8CF
:0404520018DF089512
:1002720000951095209530950F5F1F4F2F4F3F4FE0
:020282000895DD
:10028400C5DF11F19F938F938EE790E0332351F0F4
:10029400369527951795079548175907B4F44F5F76
:1002A4005F4FF4CF80959095019622239AF0000F2A
:1002B400111F221F481759071CF041505040F5CF19
:1002C400002711272227332708C033270FEF102FC9
:0C02D4002FE7322F8F919F918FDF08954C
:10021000002329F4112319F4222309F43323089528
:00022000DE
:1001FC0009D039F041585F4F342F220F369527958F
:04020C00362B0895F0
:100A6000042E152E262E372EA6DC002E112E222E19
:040A7000332E089584
:1003B60043DF81F1E62ED52EC42EB32EA22E912E2A
:1003C600802E002D112D222D332D36DF19F16E25AD
:1003D6004C0D5D1D40385307F4F441387FEF570745
:1003E600FCF088279927AA27BB2770E2B695A79520
:1003F60097958795379527951795079520F4880D36
:10040600991DAA1DBB1D7A9589F7032F3A2F292F0F
:10041600182F35DF0AC00FEF102F2FE73FE7FACF6F
:0C0426000027102F202F302FF5CF089555
:10023E00E8DF79F0632F6078220F331F432F5FE7DB
:10024E00451B55275040269530E8232B332798948D
:0A025E0003C04427552766270895C2
:100A4C00042E152E262E372EA9DD002E112E222E29
:040A5C00332E089598
:1005A8003F932F931F930F93002D112D222D332D41
:1005B80042DE09F44BC0E62ED52EC42EB32EA22E51
:1005C800912E802E0F911F912F913F9134DE61F172
:1005D8006E254C195D09403853073CF541387FEFCB
:1005E80057077CF180E27724632E522E412E302F5C
:1005F800222711270027000F111F221F331F441C19
:10060800551C661C771C28F0481859086A087B088E
:1006180004C0480C591C6A1C7B1C0AF001608A95AE
:1006280051F7415050402ADE16C00FEF102F2FE728
:100638003FE76623C9F3E8DDB9F3342D30E8342504
:10064800F3CF0027102F202F302FEECF0F900F90D1
:080658000F900F90EACF089506
:100A04001CDCF1F05523C2F04F31A8F44731C1F09A
:100A140050F44195495E05C035952795179507957E
:100A24004A95D1F70DC04751000F111F221F331FE4
:100A34004A95D1F705C03FE7232F132F032F03C097
:080A4400662309F014DC08959B
:100D6C00A0E0B0E2EAE6FDE082E090E00E94BD0582
:020D7C000895D8
:020D6A00000087
:030D6000563A0000
:050D63004144433A0089
:020D6800000089
:00000001FF
