:100000000C9468010C9400000C9400000C94000007
:100010000C9400000C9400000C9400000C94000060
:100020000C9400000C9400000C9400000C94000050
:100030000C9400000C9400000C9400000C94000040
:100040000C9400000C9400000C9400000C94000030
:100050000C9400000C9400000C9400000C94000020
:100060000C9400000C9400000C9400000C94000010
:100070000C9400000C9400000C9400000C94000000
:100080000C9400000C9400000C9400000C940000F0
:100090000000000000000000000000000000000060
:1000A0000000000000000000000000000C940000B0
:1000B0000C9400000C9400000C9400000C940000C0
:1000C0000C9400000C9400000C9400000C940000B0
:1000D0000C94000000000000000000000000000080
:1000E00000000000000000000C9400000C940000D0
:1000F0000C94000000000000000000000000000060
:100100000C9400000C9400000C9400000C9400006F
:100110000C9400000C9400000C9400000C9400005F
:100120000C9400000C9400000C94000000000000EF
:10013000000000000C9400000C9400000C940000DF
:100140000C9400000C9400000C9400000C9400002F
:100150000C9400000C9400000C9400000C9400001F
:100160000C9400000C9400000C9400000C9400000F
:100170000C9400000C94000000000000000000003F
:10018000000000000000000000000000000000006F
:10019000000000000000000000000000000000005F
:1001A000000000000000000000000000000000004F
:1001B000000000000000000000000000000000003F
:1001C000000000000000000000000000000000002F
:1001D000000000000000000000000000000000001F
:1001E000000000000000000000000000000000000F
:0C01F000000000000C9400000C940000C3
:1002D000BFEFBDBFBFE2BEBF91DFB0914806B0FF28
:1002E00004C0B1E0B093640603C0B2E0B09364060A
:1002F000B0914806B1FF04C0B4E0B093640603C0F7
:0A030000B8E0B0936406E9CFFFCF28
:1001FC00B0915000B460B09350000091510002FDDA
:10020C0001C0FBCF00915000026000935000B8ED8C
:10021C00B4BF00914100007803600093410000914D
:10022C005600087F00935600009160000160009317
:10023C0060000091510001FD01C0FBCFB8EDB4BFCF
:10024C0000914000087F0160009340000091500035
:10025C00067E00935000B0E0B093B400B0E0B093D1
:10026C004406B0E0B0934006BAE1B0935006B1E159
:10027C00B0935106BCEFB093B000B0E0B09352060F
:10028C00B0E0B0934E06B0E0B0934906B0E0B09346
:10029C004A06B0E0B0934B06B0E0B0936406BFE002
:1002AC00B0936006BFE0B093B000B0E0B0937006BE
:1002BC00B0E0B0936906B0E0B0936A06B0E0B093DA
:0402CC006B06089520
:00000001FF
