:100000000C944A010C9400000C9400000C94000025
:100010000C9400000C9400000C9400000C94000060
:100020000C9400000C9400000C9400000C94000050
:100030000C9400000C9400000C9400000C94000040
:100040000C9400000C9400000C9400000C94000030
:100050000C9400000C9400000C9400000C94000020
:100060000C9400000C9400000C9400000C94000010
:100070000C9400000C9400000C9400000C94000000
:100080000C9400000C9400000C9400000C940000F0
:100090000000000000000000000000000000000060
:1000A0000000000000000000000000000C940000B0
:1000B0000C9400000C9400000C9400000C940000C0
:1000C0000C9400000C9400000C9400000C940000B0
:1000D0000C94000000000000000000000000000080
:1000E00000000000000000000C9400000C940000D0
:1000F0000C94000000000000000000000000000060
:100100000C9400000C9400000C9400000C9400006F
:100110000C9400000C9400000C9400000C9400005F
:100120000C9400000C9400000C94000000000000EF
:10013000000000000C9400000C9400000C940000DF
:100140000C9400000C9400000C9400000C9400002F
:100150000C9400000C9400000C9400000C9400001F
:100160000C9400000C9400000C9400000C9400000F
:100170000C9400000C94000000000000000000003F
:10018000000000000000000000000000000000006F
:10019000000000000000000000000000000000005F
:1001A000000000000000000000000000000000004F
:1001B000000000000000000000000000000000003F
:1001C000000000000000000000000000000000002F
:1001D000000000000000000000000000000000001F
:1001E000000000000000000000000000000000000F
:0C01F000000000000C9400000C940000C3
:10029400BFEFBDBFBFE2BEBFAFDFB0910806B0FB8A
:0E02A400B0910406B1F9B0930406F7CFFFCF76
:1001FC00B0915000B460B09350000091510002FDDA
:10020C0001C0FBCF00915000026000935000B8ED8C
:10021C00B4BF00914100007803600093410000914D
:10022C005600087F00935600009160000160009317
:10023C0060000091510001FD01C0FBCFB8EDB4BFCF
:10024C0000914000087F0160009340000091500035
:10025C00067E00935000B0E0B093B400B0E0B093D1
:10026C000406B2E0B0930006B1E0B0931006B0E320
:10027C00B0931106B0E0B0930906B0E0B0930A0653
:08028C00B0E0B0930B060895E9
:00000001FF
