:100000000C94DB060C9400000C9400000C9400008F
:100010000C9400000C9400000C9400000C94000060
:100020000C9400000C9400000C9400000C94000050
:100030000C9400000C9400000C9400000C94000040
:100040000C9400000C9400000C9400000C94000030
:100050000C9400000C9400000C9400000C94000020
:100060000C9400000C9400000C9400000C94000010
:100070000C9400000C9400000C9400000C94000000
:100080000C9400000C9400000C9400000C940000F0
:100090000000000000000000000000000000000060
:1000A0000000000000000000000000000C940000B0
:1000B0000C9400000C9400000C9400000C940000C0
:1000C0000C9400000C9400000C9400000C940000B0
:1000D0000C94000000000000000000000000000080
:1000E00000000000000000000C9400000C940000D0
:1000F0000C94000000000000000000000000000060
:100100000C9400000C9400000C9400000C9400006F
:100110000C9400000C9400000C9400000C9400005F
:100120000C9400000C9400000C94000000000000EF
:10013000000000000C9400000C9400000C940000DF
:100140000C9400000C9400000C9400000C9400002F
:100150000C9400000C9400000C9400000C9400001F
:100160000C9400000C9400000C9400000C9400000F
:100170000C9400000C94000000000000000000003F
:10018000000000000000000000000000000000006F
:10019000000000000000000000000000000000005F
:1001A000000000000000000000000000000000004F
:1001B000000000000000000000000000000000003F
:1001C000000000000000000000000000000000002F
:1001D000000000000000000000000000000000001F
:1001E000000000000000000000000000000000000F
:0C01F000000000000C9400000C940000C3
:100DB600BFEFBDBFBFE2BEBFCDB7DEB76497CDBF45
:100DC600DEBF21962F923F924F925F926F927F9253
:100DD6008F929F924BDE3324B4E62B2EECDD0A87EE
:100DE6001B87B6E5B883BAE3B983B0E0BA838E0150
:100DF6002801B1E03B2EB1E02B2E91DEB1E4BB839E
:100E0600B4E4BC83B3E4BD83BAE3BE83B0E0BF837E
:100E16008E010D5F1F4F2801B1E03B2EB2E02B2E55
:100E26007EDEB1E03B2EB2E32B2EC5DD088B198B9F
:100E3600088719870A851B8520E017FD2FEF322FBB
:100E4600EEDD48895989088B198B2A8B3B8B8A01E1
:100E560020E057FD2FEF322FE2DD488959896A8954
:100E66007B893A014B0118012901B4E4BF93B4EF21
:100E7600BF93BCEEBF93B0E0BF93B0E0BF93BF9308
:100E8600BF93BF93B5E4BF93BFE7BF93B0EFBF93E4
:100E9600B0E0BF938BDEADB7BEB71C96ADBFBEBF8D
:100EA600C1DD66242801B1E03B2EB4E02B2EFDDE29
:100EB600B1E06B2E48845984B2E03B2EB5E02B2E70
:100EC600F4DE29E11AE502EB0A95F1F71A95E1F746
:100ED6002A95D1F700000000A4CF9F908F907F90B5
:0C0EE6006F905F904F903F902F90FFCFD7
:100A72002F923F924F925F92B0915000B460B09328
:100A820050000091510002FD01C0FBCF00915000C7
:100A9200026000935000B8EDB4BF009141000078AD
:100AA20003600093410000915600087F00935600B6
:100AB200009160000160009360000091510001FD0F
:100AC20001C0FBCFB8EDB4BF00914000087F0160C8
:100AD2000093400000915000067E00935000B0E069
:100AE200B093B400B0E0B0936406B2E0B093600695
:100AF200B8E0B0937006B0E0B0937106B0E14B2E4F
:100B0200B0E05B2E2224332446DD36DEB1E02B2E0C
:100B12009DDDBCE02B2E9ADD5F904F903F902F9091
:020B2200089534
:10059800B9E8B0930020B3E0B093012020920102A3
:0C05A80040920202B1E0B09300020895FE
:10077A00B0914406B77FB0934406B0914406BB7F5C
:10078A00B0934406B0914406BF77B0934406B09143
:10079A004406BF7BB0934406B0914406BF7DB09334
:1007AA004406B0914406BF7EB0934406B091400619
:1007BA00B860B0934006B0914006B460B09340066A
:1007CA00B0914006B061B0934006B0914006B06265
:1007DA00B0934006B0914006B064B0934006B09121
:1007EA004006B068B093400667DE66DE65DEB0910B
:1007FA004406B062B0934406B0914406B061B09327
:10080A004406B0914406B860B09344064FDEB091F6
:10081A004406B77FB09344064FDEB0914406B860F1
:10082A00B093440643DEB0914406B77FB0934406C2
:10083A0043DEB0914406B860B093440637DEB09107
:10084A004406B77FB093440637DEB0914406BF7EB4
:10085A00B0934406B0914406B860B093440626DECD
:10086A00B0914406B77FB093440626DEB0914406A1
:10087A00B860B09344061ADEB0914406B77FB093CD
:10088A004406B0914406BF7DB0934406B091440635
:10089A00B068B0934406B0914406B860B093440679
:1008AA0005DEB0914406B77FB093440605DEB091E9
:1008BA004406BF77B0934406B0914406B061B09342
:1008CA004406B0914406B860B0934406EFDDB09197
:1008DA004406B77FB0934406B0914406BF7EB093F6
:1008EA004406B0914406B860B0934406DFDDB09187
:1008FA004406B77FB0934406DFDDB0914406B86082
:10090A00B0934406D3DDB0914406B77FB093440652
:10091A00B0914406B061B0934406B0914406B86001
:10092A00B0934406C3DDB0914406B77FB093440642
:10093A00C3DDB0914406BF7EB0934406B09144062D
:10094A00B860B0934406B2DDB0914406B77FB09365
:10095A004406B0914406B068B0934406B091440688
:10096A00B064B0934406B0914406B062B0934406B2
:10097A00B0914406B061B0934406B0914406B860A1
:10098A00B093440693DDB0914406B77FB093440612
:0E099A0093DDB0910220B160B0930220089569
:1004C2001AE303E20A95F1F71A95E1F7000000003A
:0204D20008958B
:0C04B60002E00A95F1F700000000089534
:10064E0027FAB0914406B7F9B093440626FAB09152
:10065E004406B6F9B093440625FAB0914406B5F9AE
:10066E00B093440624FAB0914406B4F9B09344060C
:10067E00B091022000904406E894B0FF689402F80E
:10068E0000924406B0914406B860B09344060CDF65
:10069E00B0914406B77FB093440623FAB091440656
:1006AE00B7F9B093440622FAB0914406B6F9B09366
:1006BE00440621FAB0914406B5F9B093440620FAE7
:1006CE00B0914406B4F9B0934406B0910220009064
:1006DE004406E894B0FF689402F800924406B09184
:1006EE004406B860B0934406DFDEB0914406B77F8F
:1006FE00B0934406B0910220B0FF02C0DBDE01C011
:04070E00E5DE089587
:0A04DA0005E80A95F1F70000089507
:1009BC0050E060E070E080E0422D00E00417E0F4CD
:1009CC008F937F936F935F934F932F92232C9BDE88
:1009DC002F904F915F916F917F918F9120E0322FEB
:1009EC00050F161F271F381F502F612F722F832FB3
:1009FC00042F0150402FE1CF3F922F92052F162F3D
:100A0C00272F382F422D50E0652F752FCDDD890112
:080A1C009A012F903F9008950C
:10071200022D0370202F30E0220F331F220F331FD0
:10072200220F331F00E212E0020F131FA801F8018B
:10073200B1E8B083FA013196022D000F000F000FCD
:100742000083FA013296B0E0B083FA013396008159
:10075200013009F0FACFFA013396B1E0B083FA0121
:1007620034960081202F30E0FA0135960081102F57
:080772000027022B132B089550
:1005B400C9019A01AB01B80197FB092E05260ED09B
:1005C40057FD04D014D00AD0001C38F4509540953F
:1005D400309521953F4F4F4F5F4F0895F6F7909513
:1005E4008095709561957F4F8F4F9F4F0895A1E23D
:1005F4001A2EAA1BBB1BFD010DC0AA1FBB1FEE1F99
:10060400FF1FA217B307E407F50720F0A21BB30BE3
:10061400E40BF50B661F771F881F991F1A9469F75F
:1006240060957095809590959B01AC01BD01CF01BB
:02063400089527
:100B24002F920FC0B0E82B2E19C0B0EC2B2E16C09C
:100B3400B4E92B2E13C0B4ED2B2E10C0B0E82B2E2D
:100B44000DC0B1E02B1671F3B2E02B1671F3B3E0D4
:100B54002B1671F3B4E02B1671F3F0CF032D015073
:100B6400020D202E202E71DDB0910220BE7FB093A5
:100B7400022010E0E12FF0E0E40DF51D00810023D8
:100B840079F0E12FF0E0E40DF51D00811F932F9221
:100B9400202E4FDD2F901F91012F0F5F102FEACFD2
:0E0BA400B0910220B160B09302202F9008950E
:10063600B0910220BE7FB093022006D0B091022076
:08064600B160B0930220089599
:100BB200CF93DF93CDB7DEB76097CDBFDEBF21966F
:100BC2000C891D892E893F890C8B1D8B2E8B3F8BA7
:100BD200088D198D2A8D3B8D088F198F2A8F3B8F97
:100BE2000C8D1D8D2E8D3F8D0C8F1D8F2E8F3F8F67
:100BF2009F928F927F926F925F924F923F922F922B
:100C0200488D598D6A8D7B8D0C8D1D8D2E8D3F8D5E
:100C1200CADE2F903F904F905F906F907F908F90A1
:100C22009F900C871D872E873F879F928F927F927E
:100C32006F925F924F923F922F92A301B4010C895F
:100C42001D892E893F89AFDE088319832A833B835E
:100C52000C851D852E853F85488159816A817B815E
:100C620040DC2F903F904F905F906F907F908F90DD
:100C72009F900C871D872E873F87A301B4018101B6
:100C8200920191DE4C855D856E857F8572DC488D93
:100C9200598D6A8D7B8D63DC2F96CDBFDEBFDF91D0
:040CA200CF91089551
:1009A800042E152E262E372E7FDD002E112E222EF8
:0409B800332E08953D
:0604B000689409DF0895C5
:1002C600CADF09F441C0E62ED52EC42EB32EA22EC7
:1002D600912E802E002D112D222D332DBCDF09F4F9
:1002E6003DC0842F952F8C199D09B9F072F4909515
:1002F600809501964C2D5D2D883180F53595279595
:10030600179507950197D1F708C08831E8F4B59499
:10031600A794979487940197D1F766272EF0080D36
:10032600191D2A1D3B1D09C0801A910AA20AB30A8B
:10033600082D192D2A2D3B2D332312F479DF60E881
:1003460091DF01C07EDF16C0002D112D222D332D29
:10035600D6F751DFC1F340E83427F5CF082D192D24
:100366002A2D3B2D4C2D5D2D6E2D33235AF760DF44
:0603760060E8E8CF0895E5
:0E025C00D7DF21F0662309F0E8DF98940895BB
:10020C00F7DF79F0632F6078220F331F432F5FE7FE
:10021C00451B55275040269530E8232B33279894BF
:0A022C0003C04427552766270895F4
:1001FC00002329F4112319F4222309F4332308953D
:00020C00F2
:1002360000951095209530950F5F1F4F2F4F3F4F1C
:02024600089519
:10026A00C8DF11F19F938F938EE790E0332351F00B
:10027A00369527951795079548175907B4F44F5F90
:10028A005F4FF4CF80959095019622239AF0000F44
:10029A00111F221F481759071CF041505040F5CF33
:1002AA00002711272227332708C033270FEF102FE3
:0C02BA002FE7322F8F919F91C2DF089533
:10024800D9DF39F041585F4F342F220F3695279563
:04025800362B0895A4
:1004E400042E152E262E372E47DF002E112E222EF7
:0404F400332E089506
:10037C003F932F931F930F93002D112D222D332D6F
:10038C003FDF09F44BC0E62ED52EC42EB32EA22E81
:10039C00912E802E0F911F912F913F9131DF61F1A2
:1003AC006E254C195D09403853073CF541387FEFF9
:1003BC0057077CF180E27724632E522E412E302F8A
:1003CC00222711270027000F111F221F331F441C47
:1003DC00551C661C771C28F0481859086A087B08BD
:1003EC0004C0480C591C6A1C7B1C0AF001608A95DD
:1003FC0051F74150504033DF16C00FEF102F2FE74D
:10040C003FE76623C9F3F4DEB9F3342D30E8342525
:10041C00F3CF0027102F202F302FEECF0F900F90FF
:08042C000F900F90EACF089534
:10057400042E152E262E372E5BDF002E112E222E52
:04058400332E089575
:10043400EBDE81F1E62ED52EC42EB32EA22E912E04
:10044400802E002D112D222D332DDEDE19F16E2587
:100454004C0D5D1D40385307F4F441387FEF5707C6
:10046400FCF088279927AA27BB2770E2B695A795A1
:1004740097958795379527951795079520F4880DB7
:10048400991DAA1DBB1D7A9589F7032F3A2F292F91
:10049400182FE9DE0AC00FEF102F2FE73FE7FACF3E
:0C04A4000027102F202F302FF5CF0895D7
:10056000042E152E262E372EB5DF002E112E222E0C
:04057000332E089589
:0604D400E894F7DE089534
:100CB000CF93DF93CDB7DEB72497CDBFDEBF2196AC
:100CC0002F923F9200E010E0041515058CF4B0E27D
:100CD000B883B0E0B9838E016F925F924F923F92DA
:100CE0002801322C2F901EDF4F905F906F9017C01D
:100CF000BDE2BA83B0E0BB838E010E5F1F4F6F92DF
:100D00005F924F923F922801322C2F900BDF4F9031
:100D10005F906F9082014FEF5FEF36DC28016F929A
:100D20005F924F9248EE53E08201F0DB8B01005D51
:100D3000202E81DC4F905F906F9009C00CC05F92B5
:100D40004F92BEE22B2E77DC4F905F9004C0B1E053
:100D50006B16A1F3F4CF5F924F9244E650E082010C
:100D6000D5DB8B014AE050E0D1DB8C01005D202E09
:100D700062DC4F905F905F924F924AE050E08201B8
:100D8000C5DB8B014AE050E0C1DB8C01005D202E09
:100D900052DC4F905F904AE050E08201B7DB8C015B
:100DA000005D202E48DC3F902F902396CDBFDEBF04
:060DB000DF91CF910895D0
:100588009801249F8001259F100D349F100D089518
:0005980063
:10050C00C801BA0197FB092E07260AD077FD04D043
:10051C000CD006D000201AF4709561957F4F089589
:10052C00F6F7909581959F4F0895AA1BBB1B51E13F
:10053C0007C0AA1FBB1FA617B70710F0A61BB70B47
:10054C00881F991F5A95A9F780959095BC01CD01EC
:04055C000895089561
:060A2400E89468DD08956E
:1004F80047E16627552726F0332312F498DE60E893
:04050800B0DE0895C4
:100A2A00F0DBF1F05523C2F04F31A8F44731C1F0A1
:100A3A0050F44195495E05C0359527951795079558
:100A4A004A95D1F70DC04751000F111F221F331FBE
:100A5A004A95D1F705C03FE7232F132F032F03C071
:080A6A00662309F0E3DB0895A7
:0A0CA60005900D920197E1F7089503
:030EF200563A006D
:050EF5004144433A00F6
:020EFA000000F6
:020EFC000000F4
:00000001FF
