:100000000C9441010C9400000C9400000C9400002E
:100010000C9400000C9400000C9400000C94000060
:100020000C9400000C9400000C9400000C94000050
:100030000C9400000C9400000C9400000C94000040
:100040000C9400000C9400000C9400000C94000030
:100050000C9400000C9400000C9400000C94000020
:100060000C9400000C9400000C9400000C94000010
:100070000C9400000C9400000C9400000C94000000
:100080000C9400000C9400000C9400000C940000F0
:100090000000000000000000000000000000000060
:1000A0000000000000000000000000000C940000B0
:1000B0000C9400000C9400000C9400000C940000C0
:1000C0000C9400000C9400000C9400000C940000B0
:1000D0000C94000000000000000000000000000080
:1000E00000000000000000000C9400000C940000D0
:1000F0000C94000000000000000000000000000060
:100100000C9400000C9400000C9400000C9400006F
:100110000C9400000C9400000C9400000C9400005F
:100120000C9400000C9400000C94000000000000EF
:10013000000000000C9400000C9400000C940000DF
:100140000C9400000C9400000C9400000C9400002F
:100150000C9400000C9400000C9400000C9400001F
:100160000C9400000C9400000C9400000C9400000F
:100170000C9400000C94000000000000000000003F
:10018000000000000000000000000000000000006F
:10019000000000000000000000000000000000005F
:1001A000000000000000000000000000000000004F
:1001B000000000000000000000000000000000003F
:1001C000000000000000000000000000000000002F
:1001D000000000000000000000000000000000001F
:1001E000000000000000000000000000000000000F
:0C01F000000000000C9400000C940000C3
:0E028200BFEFBDBFBFE2BEBFB8DFFFCFFFCFF3
:1001FC00B0E0B0935000B0915000B460B093500098
:10020C00B0915100B2FD01C0FBCFB0915000B26073
:10021C00B0935000B8EDB4BFBCE1B0934100B0E076
:10022C00B0935600B1E0B0936000B0915100B1FDB5
:10023C0001C0FBCFB8EDB4BFB1E0B0934000BAE061
:10024C00B093B400B0E0B0936406B0E8B09360062D
:10025C00B7E0B0937706B0E0B0936A06B0E0B09325
:10026C006B06B0E0B0936906B0E1B093B200B2E3B4
:06027C00B093B3000895E9
:00000001FF
